:100000000C9462000C948A000C948A000C948A0070
:100010000C948A000C948A000C948A000C948A0038
:100020000C948A000C948A000C948A000C948A0028
:100030000C948A000C948A000C948A000C948A0018
:100040000C944F050C948A000C941D050C94F70435
:100050000C948A000C948A000C948A000C948A00F8
:100060000C948A000C948A000000000024002700F1
:100070002A0000000000250028002B0000000000DE
:1000800023002600290004040404040404040202DA
:100090000202020203030303030301020408102007
:1000A0004080010204081020010204081020000012
:1000B0000008000201000003040700000000000027
:1000C0000000E80811241FBECFEFD8E0DEBFCDBF8F
:1000D00023E0A0EEB2E001C01D92AB39B207E1F718
:1000E00012E0A0E0B1E0E8E7F7E102C005900D9270
:1000F000A03EB107D9F710E0C2E6D0E004C02197D6
:10010000FE010E94C209C136D107C9F70E949905B4
:100110000C94BA0B0C940000FC01538D448D252FD8
:1001200030E0842F90E0821B930B541710F0CF9691
:10013000089501970895FC01918D828D981761F0C3
:10014000A28DAE0FBF2FB11D5D968C91928D9F5FDA
:100150009F73928F90E008958FEF9FEF0895FC01B9
:10016000918D828D981731F0828DE80FF11D858D6C
:1001700090E008958FEF9FEF0895FC01918D228DFF
:10018000892F90E0805C9F4F821B91098F73992784
:100190000895FC01A48DA80FB92FB11DA35ABF4F1C
:1001A0002C91848D90E001968F739927848FA68976
:1001B000B7892C93A089B1898C91837080648C93CA
:1001C000938D848D981306C00288F389E02D808179
:1001D0008F7D80830895EF92FF920F931F93CF93AB
:1001E000DF93EC0181E0888F9B8D8C8D98131AC072
:1001F000E889F989808185FF15C09FB7F894EE8959
:10020000FF896083E889F9898081837080648083B5
:100210009FBF81E090E0DF91CF911F910F91FF9000
:10022000EF900895F62E0B8D10E00F5F1F4F0F73A8
:100230001127E02E8C8D8E110CC00FB607FCFACF63
:10024000E889F989808185FFF5CFCE010E94C90038
:10025000F1CFEB8DEC0FFD2FF11DE35AFF4FF08234
:100260009FB7F8940B8FEA89FB8980818062CFCF9A
:10027000CF93DF93EC01888D8823B9F0AA89BB89DD
:10028000E889F9898C9185FD03C0808186FD0DC0C8
:100290000FB607FCF7CF8C9185FFF2CF808185FFE9
:1002A000EDCFCE010E94C900E9CFDF91CF91089533
:1002B00085EF92E00E94BD0021E0892B09F420E047
:1002C000822F089580E090E0892B29F00E94580148
:1002D00081110C9400000895AF92BF92CF92DF92EB
:1002E000EF92FF920F931F93CF93DF936C017B01EB
:1002F0008B01040F151FEB015E01AE18BF08C0177C
:10030000D10759F06991D601ED91FC910190F081EE
:10031000E02DC6010995892B79F7C501DF91CF91B1
:100320001F910F91FF90EF90DF90CF90BF90AF9013
:100330000895833081F028F4813099F08230A9F05B
:1003400008958730A9F08830C9F08430B1F48091E5
:1003500080008F7D03C0809180008F778093800024
:10036000089584B58F7784BD089584B58F7DFBCFC4
:100370008091B0008F778093B00008958091B00095
:100380008F7DF9CFCF93DF93282F30E0F901E2552D
:10039000FF4F8491F901E656FF4FD491F901EA57D6
:1003A000FF4FC491CC23A1F081110E949901EC2F41
:1003B000F0E0EE0FFF1FE458FF4FA591B491EC91D0
:1003C000ED2381E090E009F480E0DF91CF91089582
:1003D00080E090E0FACF1F93CF93DF93282F30E097
:1003E000F901E255FF4F8491F901E656FF4FD49190
:1003F000F901EA57FF4FC491CC23A9F0162F8111C0
:100400000E949901EC2FF0E0EE0FFF1FEE58FF4F16
:10041000A591B4918FB7F894EC91111108C0D095C3
:10042000DE23DC938FBFDF91CF911F910895DE2BE8
:10043000F8CFCF93DF9390E0FC01E656FF4F249175
:100440008A579F4FFC0184918823D1F090E0880F58
:10045000991FFC01E859FF4FA591B491FC01EE589A
:10046000FF4FC591D49161110EC09FB7F8948C9144
:10047000E22FE0958E238C932881E223E8839FBFAF
:10048000DF91CF9108958FB7F894EC91E22BEC9324
:100490008FBFF6CF1F93CF93DF93182FEB0161E04F
:1004A0000E941902209739F460E0812FDF91CF91EB
:1004B0001F910C94EB01CF3FD10511F461E0F5CF12
:1004C000E12FF0E0E255FF4FE491E33031F140F4E9
:1004D000E130B1F0E230E1F0C038D1057CF7E4CF93
:1004E000E73029F1E83059F1E430B1F7809180002C
:1004F000806280938000D0938B00C0938A0004C0F8
:1005000084B5806884BDC7BDDF91CF911F910895E8
:1005100084B5806284BDC8BDF7CF809180008068BB
:1005200080938000D0938900C0938800EDCF8091A4
:10053000B00080688093B000C093B300E5CF809195
:10054000B00080628093B000C093B400DDCF3FB7AD
:10055000F8948091E1029091E202A091E302B091BF
:10056000E40226B5A89B05C02F3F19F00196A11DF6
:10057000B11D3FBFBA2FA92F982F8827BC01CD01ED
:10058000620F711D811D911D42E0660F771F881F4C
:10059000991F4A95D1F708958F929F92AF92BF927B
:1005A000CF92DF92EF92FF926B017C010E94A70233
:1005B0004B015C01C114D104E104F104B9F00E94C3
:1005C000A702681979098A099B09683E7340810569
:1005D000910580F321E0C21AD108E108F10888EE04
:1005E000880E83E0981EA11CB11CE4CFFF90EF9011
:1005F000DF90CF90BF90AF909F908F900895CF9352
:10060000DF93C4E0D0E070E060E08BE00E944A023B
:1006100070E060E08AE00E944A0270E060E089E0F9
:100620000E944A0270E060E086E00E944A0270E0A8
:1006300060E085E00E944A0270E060E083E00E9492
:100640004A0268EC70E080E090E00E94CC02609189
:10065000F40270E08BE00E944A026091F40270E0C4
:100660008AE00E944A026091F40270E089E00E94F0
:100670004A026091F40270E086E00E944A026091B2
:10068000F40270E085E00E944A026091F40270E09A
:1006900083E00E944A0268EC70E080E090E00E94F3
:1006A000CC02219709F0AFCFDF91CF9108950F933E
:1006B0001F93CF93DF9302E913E0D0E0C0E0CE01B7
:1006C0000E943F09F80181938F012196C530D10521
:1006D000B1F782E993E0DF91CF911F910F910895D7
:1006E000FC0101900020E9F73197AF01481B590B3D
:1006F000BC0185EF92E00C946C01CF93DF930E94D4
:100700007003EC0188E191E00E9470038C0F9D1F43
:10071000DF91CF910895CF93DF93FC014481558100
:100720006081718185EF92E00E946C01EC0188E1AB
:1007300091E00E9470038C0F9D1FDF91CF9108956F
:10074000CF92DF92EF92FF920F931F93CF93DF939D
:10075000CDB7DEB7A1970FB6F894DEBF0FBECDBF01
:100760009C0150E040E019A28E010F5D1F4F8AE00E
:10077000C82ED12CE12CF12CCA01B901A701960198
:100780000E94A009605DF80162938F012115310577
:100790004105510589F73097C9F0CF010E947003D8
:1007A0008C0188E191E00E947003800F911FA19657
:1007B0000FB6F894DEBF0FBECDBFDF91CF911F9172
:1007C0000F91FF90EF90DF90CF90089510E000E040
:1007D000E8CFCF93DF93EC0188819981009711F0E6
:1007E0000E94640A198218821D821C821B821A824E
:1007F000DF91CF910895FC0180819181009711F0E4
:100800000C94640A08950F931F93CF93DF93EC0128
:1008100088819981009759F02A813B8126173707F3
:1008200030F081E0DF91CF911F910F9108958B01FE
:100830006F5F7F4F0E94ED0A009759F0998388837C
:100840001B830A832C813D81232B59F7FC011082E5
:10085000E8CF80E0E7CFEF92FF920F931F93CF9303
:10086000DF93EC01FB01E080F180E114F10411F170
:100870000481158101151105A9F08C819D81080F56
:10088000191FB801CE010E940304882399F0288122
:1008900039818C819D81B701820F931F0E94B30B18
:1008A0001D830C83CE01DF91CF911F910F91FF909B
:1008B000EF900895CE010E94E903F4CFEF92FF92EA
:1008C0000F931F93CF93DF93EC017B018A01BA0151
:1008D0000E94030481110BC0CE010E94E903CE01E6
:1008E000DF91CF911F910F91FF90EF9008951D839D
:1008F0000C83B701888199810E94B30BF0CFEF92EE
:10090000FF920F931F93CF93DF93CDB7DEB761971D
:100910000FB6F894DEBF0FBECDBF8C01CB01F8013E
:100920001182108213821282158214824AE09E0183
:100930002F5F3F4F7901B9010E941509F70101901E
:100940000020E9F73197AF014E195F09B701C801DF
:100950000E945E0461960FB6F894DEBF0FBECDBF55
:10096000DF91CF911F910F91FF90EF900895FF922B
:100970000F931F93CF93DF93EC01F62E088119811B
:10098000C8010E943F09F81621F06F2DC8010E948E
:100990004709CE01DF91CF911F910F91FF900895EC
:1009A000EF92FF920F931F93CF93DF9300D0CDB7B9
:1009B000DEB78C017B019A838983FB016081CE01C4
:1009C00001960E94B7040F5F1F4F1A830983F70136
:1009D0006181CE0101960E94B704C7010F900F906C
:1009E000DF91CF911F910F91FF90EF9008951F928B
:1009F0000F920FB60F9211242F933F934F935F9353
:100A00006F937F938F939F93AF93BF93EF93FF93D6
:100A100085EF92E00E94C900FF91EF91BF91AF91E5
:100A20009F918F917F916F915F914F913F912F9106
:100A30000F900FBE0F901F9018951F920F920FB638
:100A40000F9211242F938F939F93EF93FF93E09135
:100A50000503F09106038081E0910B03F0910C03F4
:100A600082FD1BC0908180910E038F5F8F73209158
:100A70000F03821741F0E0910E03F0E0EB50FD4FC1
:100A8000958F80930E03FF91EF919F918F912F91FE
:100A90000F900FBE0F901F9018958081F4CF1F927A
:100AA0000F920FB60F9211242F933F938F939F9322
:100AB000AF93BF938091E5029091E602A091E70287
:100AC000B091E8023091E00223E0230F2D3758F572
:100AD0000196A11DB11D2093E0028093E502909341
:100AE000E602A093E702B093E8028091E1029091C0
:100AF000E202A091E302B091E4020196A11DB11DB2
:100B00008093E1029093E202A093E302B093E402A7
:100B1000BF91AF919F918F913F912F910F900FBEF9
:100B20000F901F90189526E8230F0296A11DB11D66
:100B3000D2CFCF93DF93CDB7DEB72C970FB6F89413
:100B4000DEBF0FBECDBF789484B5826084BD84B50E
:100B5000816084BD85B5826085BD85B5816085BDB8
:100B600080916E00816080936E0010928100809170
:100B700081008260809381008091810081608093F8
:100B80008100809180008160809380008091B1001D
:100B900084608093B1008091B00081608093B00048
:100BA00080917A00846080937A0080917A008260DC
:100BB00080937A0080917A00816080937A0080919E
:100BC0007A00806880937A001092C10090E080E003
:100BD0000E943F098093F3028F3F09F584EF91E073
:100BE000909393038093920390939503809394033F
:100BF00083E08093960342E9E42E43E0F42E10E074
:100C000000E01A830983F70161917F01CE0101960B
:100C10000E94B7040F5F1F4F0530110591F761E087
:100C20008BE00E94190270E060E08BE00E944A02B3
:100C300061E08AE00E94190270E060E08AE00E94B0
:100C40004A0261E089E00E94190270E060E089E0F8
:100C50000E944A0261E086E00E94190270E060E0B2
:100C600086E00E944A0261E085E00E94190270E07D
:100C700060E085E00E944A0261E083E00E94190280
:100C800070E060E083E00E944A0260E087E00E943A
:100C9000190261E087E00E94EB0161E082E00E94BE
:100CA000190260E082E00E94EB0161E081E00E94B5
:100CB000190260E081E00E94EB0161E088E00E949F
:100CC000190260E088E00E94EB0160E08CE00E9485
:100CD000190261E08CE00E94EB0160E081E10E947A
:100CE000190261E081E10E94EB0160E080E10E9475
:100CF000190261E080E10E94EB018CE00E94C201D8
:100D0000892B09F066C161E082E00E94EB018BE172
:100D100091E00E947D0310E000E0F12CE12C88E2DC
:100D200091E00E947D038AE491E00E947D0387E0C8
:100D30000E94C201892BD9F78AEB91E00E947D03C2
:100D40008FB7F8944090E5025090E6026090E70279
:100D50007090E8028FBF5201B201CE0101960E944D
:100D60007F0418861F821A8619861C861B8649E016
:100D700050E06EED71E0CE0107960E945E04BE0168
:100D80006F5F7F4FCE0107960E942B040E948B035A
:100D9000CE0107960E94FB03CE0101960E94FB0341
:100DA000E114F10499F088EE91E00E9470034E186E
:100DB0005F08C2010E94A003809194039091950363
:100DC000480E591E509295034092940381E891E099
:100DD0000E947D03C801880F991F9C0127513D4F38
:100DE0006901A114B10409F4FFCF87E00E94C20198
:100DF0000197B9F78FB7F8944090E5025090E6025A
:100E00006090E7027090E8028FBF7201B201CE01DC
:100E100001960E947F0418861F821A8619861C86F6
:100E20001B8649E050E06EED71E0CE0107960E940E
:100E30005E04BE016F5F7F4FCE0107960E942B04B8
:100E40000E948B03CE0107960E94FB03CE01019600
:100E50000E94FB0380E092E00E947003B2016A19D5
:100E60007B09F60171836083CE0107960E947F049F
:100E70001A8219821C821B821E821D826F817885D4
:100E80006115710531F04B855C85CE0101960E949C
:100E90005E04CD80DE80F3E0CF0ED11CB601CE0122
:100EA00001960E940304882309F483C129813A81B1
:100EB0008D819E8161E372E0820F931F0E94B30BCC
:100EC000DE82CD82CE0101960E948B03CE01019677
:100ED0000E94FB03CE0107960E94FB030F5F1F4F8A
:100EE0000530110509F01BCF88E291E00E947D03D7
:100EF00003EF12E029EEE22E22E0F22EF8019291A9
:100F000082918F010E94A00380919203909193039C
:100F1000F80120813181820F931F90939303809376
:100F20009203E016F10651F725E030E0B9010E9486
:100F30008C09709393036093920380919403909132
:100F40009503B9010E948C09615071097093950352
:100F50006093940385E392E00E9470038091920372
:100F6000909193030E94A00385E792E00E94700392
:100F700080919403909195030E94A00360E082E029
:100F80000E94EB0113E061E088E00E94EB016CE25B
:100F900071E080E090E00E94CC0260E088E00E9476
:100FA000EB016CE271E080E090E00E94CC02115015
:100FB00051F78FEB92E00E947D0362E973E090E0CD
:100FC00080E00E94D00464E973E082E090E00E9437
:100FD000D0040E945703609196036093F40270E07E
:100FE0008BE00E944A02809192039091930306E065
:100FF00010E0B8010E948C0990E080E00E94CC02D1
:101000006091F40270E08AE00E944A0280919203AB
:1010100090919303B8010E948C0990E080E00E94B7
:10102000CC026091F40270E089E00E944A02809153
:10103000920390919303B8010E948C0990E080E0A4
:101040000E94CC026091F40270E086E00E944A02A5
:101050008091920390919303B8010E948C0990E0D3
:1010600080E00E94CC026091F40270E085E00E9472
:101070004A028091920390919303B8010E948C09D7
:1010800090E080E00E94CC026091F40270E083E086
:101090000E944A028091920390919303B8010E94AA
:1010A0008C0990E080E00E94CC0280E0E82E80E095
:1010B000F82E00ECBB24B39494E0C92ED12C80E12F
:1010C0000E94C201892B41F48091F4028F5F803C21
:1010D00008F074C08093F40281E10E94C201892B60
:1010E00041F48091F4028150823008F46CC0809306
:1010F000F4026091F40270E08BE00E944A02609179
:10110000F40270E08AE00E944A026091F40270E00A
:1011100089E00E944A026091F40270E086E00E9439
:101120004A026091F40270E085E00E944A026091F8
:10113000F40270E083E00E944A0262E370E080E023
:1011400090E00E94CC028CE00E94C201892B29F51C
:101150006091F402809196038617F9F0DA82C982D1
:10116000CE0101960E94B7040E94570314E061E08B
:1011700081E00E94EB016CE271E080E090E00E946F
:10118000CC0260E081E00E94EB016CE271E080E063
:1011900090E00E94CC02115051F7E114F10409F4DF
:1011A0008ECF0E945801882309F489CF0E94000045
:1011B00086CFCE0101960E94E90384CE0093F4020B
:1011C0000E94FF0289CFB092F4020E94FF0291CFE9
:1011D000E5EFF2E01382128288EE93E0A0E0B0E047
:1011E00084839583A683B7838AE091E0918380838B
:1011F00085EC90E09587848784EC90E097878687DC
:1012000080EC90E0918B808B81EC90E0938B828BD3
:1012100082EC90E0958B848B86EC90E0978B868BAC
:10122000118E128E138E148E0895BB27FB01552745
:10123000AA27880F991FAA1FA41710F0A41B839533
:101240005051B9F7A05DAA3308F0A95DA1930097AA
:1012500079F7B111B1931192CB010C942F09DC01F4
:10126000FC01672F71917723E1F7329704C07C91DD
:101270006D9370836291AE17BF07C8F30895F99913
:10128000FECF92BD81BDF89A992780B50895262F8B
:10129000F999FECF1FBA92BD81BD20BD0FB6F8945B
:1012A000FA9AF99A0FBE019608952F923F924F92A3
:1012B0005F926F927F928F929F92AF92BF92CF92E6
:1012C000DF92EF92FF920F931F93CF93DF93CDB7EF
:1012D000DEB7CA1BDB0B0FB6F894DEBF0FBECDBF67
:1012E00009942A88398848885F846E847D848C8438
:1012F0009B84AA84B984C884DF80EE80FD800C8141
:101300001B81AA81B981CE0FD11D0FB6F894DEBF23
:101310000FBECDBFED010895AA1BBB1B51E107C055
:10132000AA1FBB1FA617B70710F0A61BB70B881F75
:10133000991F5A95A9F780959095BC01CD01089504
:10134000A1E21A2EAA1BBB1BFD010DC0AA1FBB1FC9
:10135000EE1FFF1FA217B307E407F50720F0A21B3B
:10136000B30BE40BF50B661F771F881F991F1A94A8
:1013700069F760957095809590959B01AC01BD01D2
:10138000CF010895EE0FFF1F0590F491E02D099411
:101390000F931F93CF93DF938230910510F482E077
:1013A00090E0E0919903F0919A0330E020E0B0E002
:1013B000A0E0309799F42115310509F44AC0281BA3
:1013C000390B24303105D8F58A819B81611571056F
:1013D00089F1FB0193838283FE0111C04081518119
:1013E0000281138148175907E0F04817590799F40B
:1013F000109761F012960C93129713961C933296E5
:10140000CF01DF91CF911F910F9108950093990320
:1014100010939A03F4CF2115310551F04217530769
:1014200038F0A901DB019A01BD01DF01F801C1CF4C
:10143000EF01F9CF90939A0380939903CDCFFE01EA
:10144000E20FF31F8193919322503109398328834E
:10145000D7CF2091970330919803232B41F420910B
:101460000201309103013093980320939703209158
:101470000001309101012115310541F42DB73EB72E
:101480004091040150910501241B350BE091970315
:10149000F0919803E217F307A0F42E1B3F0B2817D7
:1014A000390778F0AC014E5F5F4F2417350748F0DD
:1014B0004E0F5F1F5093980340939703819391932E
:1014C0009FCFF0E0E0E09CCFCF93DF930097E9F06F
:1014D000FC01329713821282A0919903B0919A0372
:1014E000ED0130E020E01097A1F420813181820FDE
:1014F000931F20919703309198032817390709F01B
:1015000061C0F0939803E0939703DF91CF91089522
:10151000EA01CE17DF07E8F54A815B819E0141159C
:101520005105B1F7E901FB83EA8349915991C40F51
:10153000D51FEC17FD0761F4808191810296840F1D
:10154000951FE90199838883828193819B838A8394
:10155000F0E0E0E012968D919C9113970097B9F519
:101560002D913C911197CD010296820F931F2091EE
:101570009703309198032817390739F6309751F5BA
:1015800010929A0310929903B0939803A093970333
:10159000BCCFD383C28340815181840F951FC8176C
:1015A000D90761F44E5F5F4F88819981480F591FB9
:1015B000518340838A819B819383828321153105E6
:1015C00009F0B0CFF0939A03E09399039ECFFD0109
:1015D000DC01C0CF13821282D7CFB0E0A0E0E3EFEE
:1015E000FAE00C9457098C01009751F4CB010E944A
:1015F000C8098C01C801CDB7DEB7E0E10C947309CE
:10160000FC01E60FF71F9C0122503109E217F30796
:1016100008F49DC0D901CD91DC911197C617D70769
:1016200098F0C530D10530F3CE010497861797079F
:1016300008F3C61BD70B2297C193D1936D937C936C
:10164000CF010E94640AD6CF5B01AC1ABD0A4C01DF
:101650008C0E9D1EA0919903B0919A03512C412CA0
:10166000F12CE12C109731F580919703909198031C
:101670008815990509F05CC04616570608F058C051
:101680008091000190910101009741F48DB79EB7C0
:101690004091040150910501841B950BE817F9074F
:1016A00008F055C0F0939803E0939703F901718314
:1016B0006083A0CF8D919C91119712966C90129798
:1016C00013967C901397A815B90559F56C0142E063
:1016D000C40ED11CCA14DB0420F1AC014A195B0909
:1016E000DA011296159780F06282738251834083EB
:1016F000D9016D937C93E114F10471F0D701139635
:10170000FC93EE93129776CF22968C0F9D1FF901D2
:1017100091838083F301EFCFF0939A03E0939903D1
:1017200069CF4816590608F42C017D01D3019ACFE0
:10173000CB010E94C8097C01009749F0AE01B801B5
:101740000E94AA0BC8010E94640A870153CF10E0CF
:1017500000E050CFFB01DC0102C001900D9241502E
:101760005040D8F70895FB01DC0101900D92002054
:08177000E1F70895F894FFCFA2
:1017780000009B03800000000000EB006C018C005F
:101788003801BD009B00AF000D0A0054756E65203E
:101798006D6F6465206F6E003D3D3D3D3D3D3D3DB7
:1017A8003D3D3D3D3D3D3D3D3D3D3D3D3D3D3D3D61
:1017B8003D3D3D3D3D3D3D3D3D00D09ED0B6D0B880
:1017C800D0B4D0B0D18E20D0B2D0BAD0BBD18ED1C7
:1017D80087D0B5D0BDD0B8D18F20D0BFD0BED0B2C1
:1017E800D0BED180D0BED182D0BDD0B8D0BAD0B012
:1017F80000D09ED0B6D0B8D0B4D0B0D18E20D0BE54
:10180800D182D0BAD0BBD18ED187D0B5D0BDD0B817
:10181800D18F20D0BFD0BED0B2D0BED180D0BED163
:1018280082D0BDD0B8D0BAD0B000D09FD0BED0B290
:10183800D0BED180D0BED182D0BDD0B8D0BA20D051
:10184800B2D0BAD0BBD18ED187D0B5D0BD002A2AAC
:101858002A2A2A2A2A2A2A00D092D180D0B5D0BC96
:10186800D18F20D0BFD0B0D183D0B7D18B3A200050
:10187800D092D180D0B5D0BCD18F20D180D0B0D07B
:10188800B1D0BED182D18B20D0BFD0BED0B2D0BE15
:10189800D180D0BED182D0BDD0B8D0BAD0B03A2095
:1018A80000206D7300D0A1D180D0B5D0B4D0BDD008
:1018B800B5D0B520D0B2D180D0B5D0BCD18F20D191
:1018C80080D0B0D0B1D0BED182D18B20D0BFD0BE15
:1018D800D0B2D0BED180D0BED182D0BDD0B8D0BA1F
:1018E800D0B03A2000D0A1D180D0B5D0B4D0BDD0EE
:1018F800B5D0B520D0B2D180D0B5D0BCD18F20D052
:10190800B2D18BD0BAD0BBD18ED187D0B5D0BDD013
:10191800BED0B3D0BE20D0BFD0BED0B2D0BED18052
:10192800D0BED182D0BDD0B8D0BAD0B03A2000D085
:1019380090D0B2D182D0BED182D18ED0BD20D0B7C6
:10194800D0B0D0B2D0B5D180D188D0B5D0BD00004C
:00000001FF
